:100000000C94A9000C94D1000C94D1000C94C7035B
:100010000C94C7030C94C7030C94D1000C94D1002A
:100020000C94D1000C94D1000C94D1000C94D1000C
:100030000C94D1000C94D1000C94D1000C94D100FC
:100040000C94050A0C94D1000C9495030C946F0346
:100050000C94D1000C94D1000C94D1000C94D100DC
:100060000C94F9060C94D1001F1C1F1E1F1E1F1F8D
:100070001E1F1E00000000240027002A00000000B0
:100080000800020100000304070000000000000057
:10009000007E306D79335B5F707F7B771F0D3D4F46
:1000A0004700000000000000000000000000000009
:1000B000000000000000000000000000008001803F
:1000C000007E306D79335B5F707F7B000000000045
:1000D0000000771F0D3D4F4700370000000E000065
:1000E00000670000000000000000000000000000A9
:1000F0000800771F0D3D4F4700370000000E001528
:100100001D6700000000000000000000000000006B
:100110000000000000230026002900000000002548
:100120000028002B00040404040404040402020256
:100130000202020303030303030102040810204028
:1001400080010204081020010204081020002B1274
:10015000820C11241FBECFEFD8E0DEBFCDBF27E059
:10016000AEE4B1E001C01D92AC3FB207E1F711E08F
:10017000A0E0B1E0E8E1FDE202C005900D92AE34EE
:10018000B107D9F710E0C8EAD0E004C02197FE011A
:100190000E947D14C73AD107C9F70E949E0C0C94A7
:1001A0007F160C940000CF92DF92EF92FF920F9394
:1001B0001F93CF93DF936C017A018B01C0E0D0E0F5
:1001C000CE15DF0581F0D8016D918D01D601ED913D
:1001D000FC910190F081E02DC6010995892B11F069
:1001E0002196EECF7E01C701DF91CF911F910F9134
:1001F000FF90EF90DF90CF900895FC01538D448DD8
:10020000252F30E0842F90E0821B930B541710F0C1
:10021000CF96089501970895FC01918D828D9817CE
:1002200061F0828DDF01A80FB11D5D968C91928DDA
:100230009F5F9F73928F90E008958FEF9FEF0895D7
:10024000FC01918D828D981731F0828DE80FF11DA0
:10025000858D90E008958FEF9FEF0895FC01918DBB
:10026000228D892F90E0805C9F4F821B91098F73B4
:100270009927089584EC96E00E942E0121E0892BB5
:1002800009F420E0822F0895FC01848DDF01A80F7E
:10029000B11DA35ABF4F2C91848D90E001968F73AE
:1002A0009927848FA689B7892C93A089B1898C91CD
:1002B000837080648C93938D848D981306C002881C
:1002C000F389E02D80818F7D80830895EF92FF92E6
:1002D0000F931F93CF93DF93EC0181E0888F9B8D69
:1002E0008C8D981305C0E889F989808185FD26C029
:1002F000F62E0B8D10E00F5F1F4F0F731127E02EAE
:100300008C8DE8120CC00FB607FCFACFE889F9898A
:10031000808185FFF5CFCE010E944401F1CF8B8D06
:10032000FE01E80FF11DE35AFF4FF0829FB7F894EA
:100330000B8FEA89FB89808180620AC09FB7F8949D
:10034000EE89FF896083E889F98980818370806400
:1003500080839FBF81E090E0DF91CF911F910F914B
:10036000FF90EF900895CF93DF93EC01888D882361
:10037000C9F0EA89FB89808185FD05C0A889B98912
:100380008C9186FD0FC00FB607FCF5CF808185FFED
:10039000F2CFA889B9898C9185FFEDCFCE010E945B
:1003A0004401E7CFDF91CF91089580E090E0892B61
:1003B00029F00E943A0181110C94000008952091C7
:1003C0004402309145022817390771F49091420296
:1003D00080914302981741F0E0914202F0E0EE5F15
:1003E000FD4F808190E008958FEF9FEF089508956D
:1003F0001F93CF93DF93DC015C968D919C915D9769
:10040000009739F421E030E013963C932E93129735
:100410003BC05196ED91FC91529750962C9150977C
:10042000322F30951FB75E964C915E97742F727085
:1004300041FD6095F8944081772311F0422B01C073
:1004400043234083EC012197F1F748E0508160FF9E
:1004500002C0522B01C053235083EC012197F1F7C6
:100460006695415099F78081772319F08323808323
:1004700002C0282B20831FBF5C968D919C915D97B5
:100480000197F1F781E090E0DF91CF911F910895FE
:1004900020914402309145022817390771F4809168
:1004A00043022091420290E0805C9F4F821B9109A1
:1004B00060E470E00E944714089580E090E00895A1
:1004C000209144023091450228173907B9F49091E0
:1004D000420280914302981789F0E0914202F0E0D5
:1004E000EE5FFD4F80812091420230E02F5F3F4F51
:1004F0002F7333272093420290E008958FEF9FEFF0
:10050000089540917101262F30E0240F311D2132D2
:100510003105DCF42091DC012430C9F4FC0180E0D9
:1005200090E0861758F4309171012191DC01AF5AA7
:10053000BE4FA30FB11D2C930196F3CF8091710193
:10054000680F6093710180E0089581E0089582E072
:10055000089508950895E0914D0280914C02E817A6
:1005600030F4F0E0EE51FE4F808190E008958FEF7F
:100570009FEF089590914D0280914C02981750F48E
:10058000E92FF0E0EE51FE4F208130E09F5F909325
:100590004D0202C02FEF3FEFC901089580914C0238
:1005A00090E020914D02821B91090895CF92DF9235
:1005B000EF92FF920F931F93CF93DF937C01CB01B8
:1005C0008A0120919401222389F0EB016B01C40E72
:1005D000D51ECC15DD0569F06991D701ED91FC912F
:1005E0000190F081E02DC7010995F3CF642F0E949F
:1005F0008102C801DF91CF911F910F91FF90EF9081
:10060000DF90CF900895CF93DF931F92CDB7DEB7E1
:100610006983209194012223D1F020914A02203253
:1006200040F021E030E0FC013383228380E090E061
:1006300015C080914B02E82FF0E0EB56FE4F9981F8
:1006400090838F5F80934B0280934A0205C061E0E4
:10065000CE0101960E94810281E090E00F90DF912F
:10066000CF910895089580E090E008950F931F932F
:10067000CF93DF93EC0188819981009729F02A813B
:100680003B812617370788F48B016F5F7F4F0E94ED
:10069000A415009761F0998388831B830A832C81BA
:1006A0003D81232B11F4FC01108281E001C080E028
:1006B000DF91CF911F910F910895CF93DF93EC01BC
:1006C00088819981009711F00E941B151982188268
:1006D0001D821C821B821A82DF91CF9108951F9286
:1006E0000F920FB60F9211242F933F934F935F9366
:1006F0006F937F938F939F93AF93BF93EF93FF93EA
:1007000084EC96E00E944401FF91EF91BF91AF917C
:100710009F918F917F916F915F914F913F912F9119
:100720000F900FBE0F901F9018951F920F920FB64B
:100730000F9211242F938F939F93EF93FF93E09148
:10074000D406F091D5068081E091DA06F091DB06BF
:1007500082FD12C090818091DD068F5F8F732091A2
:10076000DE06821751F0E091DD06F0E0EC53F94F20
:10077000958F8093DD0601C08081FF91EF919F915D
:100780008F912F910F900FBE0F901F9018951F9271
:100790000F920FB60F9211242F933F934F935F93B5
:1007A0006F937F938F939F93AF93BF93EF93FF9339
:1007B000E0914402F0914502309709F451C0968DC2
:1007C000A685B785858591FF04C09C91892329F46E
:1007D00047C09C91892309F043C0A389B4899C91A7
:1007E0008589809589238C93868997890197F1F76C
:1007F000608D718DA685B785558538E020E0CB01E9
:100800000197F1F7822F90E095958795282F4C91CD
:10081000452309F02068315091F7868D81FD2095A0
:100820008091430290E001968F73992730914202A4
:10083000381749F0A0914302B0E0AE5FBD4F2C9352
:100840008093430203C0868D8160868F828D938D55
:100850000197F1F7A389B4899C918589892B8C93A1
:10086000FF91EF91BF91AF919F918F917F916F9188
:100870005F914F913F912F910F900FBE0F901F905E
:100880001895FC0161819081492F50E0228130E070
:10089000E8E6F0E081E0861730F47491270F311D0F
:1008A0008F5F3196F8CF633020F0937011F42F5F93
:1008B0003F4F6DE671E0469FC001479F900D569FE8
:1008C000900D112405964D5F5F4F569547955695AF
:1008D0004795840F951F820F931F67E070E00E9479
:1008E000331408951092DC0181E08093DB011092B3
:1008F000D60161E082E10E940E0B61E083E10E947B
:100900000E0BE9EBF0E080818E7F808380818D7F0C
:10091000808388E48093B80085E48093BC000895C8
:10092000CF93DF9391E0909350018823B9F0C09169
:10093000B800D091BA008091BC008A7B8093BC0043
:1009400060E082E10E940E0B60E083E10E940E0BEA
:100950000E947204D093BA00C093B800DF91CF9187
:1009600008958F929F92AF92BF92CF92DF92EF92B3
:10097000FF920F931F93CF93DF938C0181E08093BD
:10098000940188E68093B50110924B0210924A02BE
:1009900060E081E697E00E940303C0914A02C13201
:1009A00008F0B9C00E94200C6B017C018091DC0131
:1009B000882311F18091DE019091DF01A091E00187
:1009C000B091E101892B8A2B8B2B81F30E94200CA3
:1009D0008090DE019090DF01A090E001B090E101F5
:1009E000DC01CB018C199D09AE09BF098816990657
:1009F000AA06BB06D8F680C082E08093DC0181E0C5
:100A00008093DB018FEF8093DA011092D901C093BC
:100A1000D801A5E9B1E0E6EBF1E080E0C81721F0EC
:100A20009D9191938F5FFACF1092D7018091D7015A
:100A3000806D8093D7018091D601813089F5109225
:100A4000D6010E94200C6B017C018091D70180931C
:100A5000BB008091DE019091DF01A091E001B09197
:100A6000E101892B8A2B8B2BA9F00E94200C80900E
:100A7000DE019090DF01A090E001B090E101DC0187
:100A8000CB018C199D09AE09BF0988169906AA06E3
:100A9000BB0690F18091BC0083FDD7CF85EC01C0EF
:100AA00085EE8093BC000E94200C6B017C0180913C
:100AB000DC01823031F58091DE019091DF01A0915F
:100AC000E001B091E101892B8A2B8B2B81F30E94ED
:100AD000200C8090DE019090DF01A090E001B090AA
:100AE000E101DC01CB018C199D09AE09BF09881613
:100AF0009906AA06BB06D8F68091DD010E949004F3
:100B00000AC08091DA018F3F31F08091DA018032A2
:100B100011F08091DA0110924B0210924A02109269
:100B200094010E94200C6B017C01C091DC01CC235C
:100B300039F18091DE019091DF01A091E001B09147
:100B4000E101892B8A2B8B2B81F30E94200C809052
:100B5000DE019090DF01A090E001B090E101DC01A6
:100B6000CB018C199D09AE09BF0988169906AA0602
:100B7000BB06D8F68091DD010E949004C0E08DC0D4
:100B800081E08093DC018093DB019FEF9093DA0199
:100B90001092D90196E09093D8018093D70180916B
:100BA000D701806D8093D7018091D601813089F57E
:100BB0001092D6010E94200C6B017C018091D7011C
:100BC0008093BB008091DE019091DF01A091E00154
:100BD000B091E101892B8A2B8B2BA9F00E94200C6C
:100BE0008090DE019090DF01A090E001B090E101E3
:100BF000DC01CB018C199D09AE09BF098816990645
:100C0000AA06BB0690F18091BC0083FDD7CF85EC8E
:100C100001C085EE8093BC000E94200C6B017C011A
:100C20008091DC01813031F58091DE019091DF010E
:100C3000A091E001B091E101892B8A2B8B2B81F3EC
:100C40000E94200C8090DE019090DF01A090E001D6
:100C5000B090E101DC01CB018C199D09AE09BF09FF
:100C600088169906AA06BB06D8F68091DD010E9477
:100C7000900413C08091D901873018F48091D90174
:100C800001C087E0E6EBF1E0A2EEB1E0C0E0C817FA
:100C900021F091919D93CF5FFACF10924D02C093B6
:100CA0004C0281E697E00E94BA028F77982F9295C6
:100CB0009F70DAEFF82E9D9FF00C112481E697E0EB
:100CC0000E94BA029C01332794E0359527959A95A6
:100CD000E1F7E82ED29FE00C112481E697E00E9414
:100CE000BA029C01332744E0359527954A95E1F7F0
:100CF000D82ED29FD00C112481E697E00E94BA0230
:100D000081E697E00E94BA029C01332754E03595B2
:100D100027955A95E1F7C82ED29FC00C112481E681
:100D200097E00E94BA029C01332764E0359527952D
:100D30006A95E1F7C82FD29FC00D112481E697E094
:100D40000E94BA029C01332774E0359527957A9565
:100D5000E1F7D29F800D1124F8018083C183C28204
:100D6000D382E482F582C801DF91CF911F910F9168
:100D7000FF90EF90DF90CF90BF90AF909F908F90BB
:100D8000089585ED8093BC008091DE019091DF0194
:100D9000A091E001B091E1010796A11DB11D23E0F2
:100DA000B695A795979587952A95D1F72091BC0080
:100DB00024FF1CC04091DE015091DF016091E001F1
:100DC0007091E101452B462B472B81F30097A1053C
:100DD000B10541F025E32A95F1F700000197A1093B
:100DE000B109E4CF8091DD010C9490041092DC01F4
:100DF00008951F920F920FB60F9211242F933F93D5
:100E00004F935F936F937F938F939F93AF93BF9312
:100E1000EF93FF938091B900887F803609F49CC0DE
:100E200068F5883209F45BC090F4803109F454C04D
:100E300038F4882309F4F6C0883009F44DC0F6C0B0
:100E4000883109F44CC0803209F45DC0EFC08034B1
:100E500009F468C048F4803309F455C0883309F0B8
:100E6000E5C08093DA01D8C0803509F44FC08835D9
:100E700009F45DC0883409F0D9C0D6C0883909F4B6
:100E8000C7C0A8F4883709F467C038F4883609F475
:100E900063C0803709F460C0C9C0883809F4B8C09D
:100EA000803909F45FC0803809F0C0C05BC0803B66
:100EB00009F486C038F4803A09F466C0883A09F427
:100EC0007FC0B4C0803C09F4A7C0883C09F4A4C02A
:100ED000883B09F48AC0AAC08091D70110C09091C4
:100EE000D9018091D801981770F5E091D90181E07E
:100EF0008E0F8093D901F0E0EA54FE4F80818093F9
:100F0000BB0085EC86C08093DA018EC0E091D901E8
:100F100081E08E0F8093D9018091BB00F0E0EA540C
:100F2000FE4F80839091D9018091D8016EC0E091ED
:100F3000D90181E08E0F8093D9018091BB00F0E050
:100F4000EA54FE4F80838091DB0181116DC081E006
:100F50008093D60184EA61C083E08093DC01109223
:100F60009301CFCF80919301803208F051C0E0917E
:100F7000930181E08E0F809393018091BB00F0E09C
:100F8000ED58FE4F8083BDCF85EC8093BC0010925E
:100F9000DC0180919301803230F4E0919301F0E024
:100FA000ED58FE4F10826091930170E0E09146028F
:100FB000F091470283E791E009951092930136C0C2
:100FC00084E08093DC011092720110927101E09133
:100FD0004802F0914902099580917101811105C083
:100FE00081E08093710110925101E091720181E0E2
:100FF0008E0F80937201F0E0EF5AFE4F8081809354
:10100000BB009091720180917101981708F479CF1B
:1010100085E88093BC000AC085EC8093BC001092E8
:10102000DC0104C01092DA010E94C106FF91EF9129
:10103000BF91AF919F918F917F916F915F914F91F0
:101040003F912F910F900FBE0F901F901895AF9268
:10105000BF92DF92EF92FF920F931F93CF93DF9394
:10106000EC017B018B015C0184E0A80EB11CF8014E
:10107000D1908F01CE010E94BC13D81621F06D2DA6
:10108000CE010E94C4132196CA15DB0581F7C70162
:10109000DF91CF911F910F91FF90EF90DF90BF9064
:1010A000AF900895CF93DF9320EAFC012E9FC001FB
:1010B0002F9F900D1124FC01E25BFD4FC0E0D0E0BA
:1010C00080819181681779074CF46091AE0670E0D9
:1010D00080E090E04AE00E94570A0DC022813381EF
:1010E000421753071CF48617970779F32196389611
:1010F000C431D10529F7CE01DF91CF910895BF9278
:10110000CF92DF92EF92FF920F931F93CF93DF93D3
:1011100000D0CDB7DEB70E94450C0091EC071091CE
:10112000ED072091EE073091EF07DC01CB01801B2A
:10113000910BA20BB30B00913F0110914001209144
:10114000410130914201081719072A073B0708F0AF
:101150004FC08DE289838FE58A8380E090E00E9412
:101160009A0B0E94450C6093EC077093ED078093F7
:10117000EE079093EF078CE8C82E87E0D82EBB24AB
:10118000B39492E0E92EF12CC6018C58974000915F
:101190004E0110914F012091E2073091E3071216A2
:1011A0001306CCF4800F911FB7010E944714E1E0B1
:1011B000F0E0EC0FFD1FE80FF91FE081E7FDE0E232
:1011C000F0E0EF56FF4F4491F601408B6B2D80E02D
:1011D00090E00E943D0BFFEFCF1ADF0AB39489E045
:1011E000B812D2CF0F5F1F4F10934F0100934E01E3
:1011F0000F900F90DF91CF911F910F91FF90EF9083
:10120000DF90CF90BF9008952F923F924F925F92C0
:101210006F927F928F929F92AF92BF92CF92DF9206
:10122000EF92FF920F931F93CF93DF93CDB7DEB76B
:101230002E970FB6F894DEBF0FBECDBF8EE4282EDA
:1012400082E0382E01E010E0CE0101969E838D836E
:10125000FE013596F887EF839AE0492E512C612CD8
:10126000712CC801805B9F4F9A8789877101FE01AD
:1012700031966F0158018D819E81A81AB90AC50166
:101280008C0D9D1D0E94BC13F60181936F018F810F
:101290009885E817F90799F789809A80AB80BC8018
:1012A000C501B40120EA36E841E050E00E945B1439
:1012B000CA01B901A30192010E945B14EAE0E69F12
:1012C0006001E79FD00C1124C501B40120E137E291
:1012D00040E050E00E945B14CA01B901A3019201F1
:1012E0000E945B146C0D7D1DF70171836083C50145
:1012F000B40128EE33E040E050E00E945B14CA01E4
:10130000B901A30192010E945B14FAE0F69F60010B
:10131000F79FD00C1124C501B40124E630E040E071
:1013200050E00E945B14CA01B901A30192010E941E
:101330005B146C0D7D1DF70173836283C501B401DD
:10134000A30192010E945B146B877C878D879E8727
:10135000CA01B901A30192010E945B14F7017583D0
:1013600064838B859C859783868381149104A10473
:10137000B104E9F0C501B4010E94D80AC12CD12CF6
:10138000F701EC0DFD1D808191810E94A80A0E9449
:101390004F0A92E0C90ED11CE8E0CE16D10481F7C5
:1013A0000E944F0AC8010E94A80A0E944F0A0C5FBF
:1013B0001F4FF8E0EF0EF11C89859A850817190771
:1013C00009F055CF90EA290E311C0133E2E01E07E7
:1013D00009F047CF2E960FB6F894DEBF0FBECDBFF3
:1013E000DF91CF911F910F91FF90EF90DF90CF9001
:1013F000BF90AF909F908F907F906F905F904F9035
:101400003F902F9008950E946A161F920F920FB678
:101410000F9211242F933F938F939F93AF93BF937A
:101420008091BC069091BD06A091BE06B091BF060A
:101430003091BB0623E0230F2D3720F40196A11D28
:10144000B11D05C026E8230F0296A11DB11D2093F2
:10145000BB068093BC069093BD06A093BE06B093D6
:10146000BF068091C0069091C106A091C206B091BE
:10147000C3060196A11DB11D8093C0069093C106BD
:10148000A093C206B093C306BF91AF919F918F9175
:101490003F912F910F900FBE0F901F90189542E033
:1014A00050E06BE471E084EC96E00C94D3008F92F2
:1014B0009F92AF92BF920F931F93CF93DF93CDB7BD
:1014C000DEB7A1970FB6F894DEBF0FBECDBF19A24D
:1014D000423008F44AE08E010F5D1F4F842E912C9C
:1014E000A12CB12CA50194010E945B14E62FB90137
:1014F000CA0101501109EA3014F4E05D01C0E95C51
:10150000D801EC93232B242B252B61F70115110512
:1015100071F0F80101900020E9F73197AF01401B0D
:10152000510BB80184EC96E00E94D30002C080E029
:1015300090E0A1960FB6F894DEBF0FBECDBFDF914D
:10154000CF911F910F91BF90AF909F908F90089572
:10155000CF92DF92EF92FF92CF93DF936C01990FBE
:10156000EE08FF08F7FE19C06DE284EC96E00E94D9
:101570006601EC0166277727CB016C197D098E097E
:101580009F094AE00E94570A8C0F9D1FDF91CF915F
:10159000FF90EF90DF90CF9008954AE0C701B60129
:1015A000DF91CF91FF90EF90DF90CF900C94570A8E
:1015B000CF93DF934AE00E94570AEC010E944F0A42
:1015C0008C0F9D1FDF91CF910895833081F028F417
:1015D000813099F08230A1F008958730A9F08830E9
:1015E000B9F08430D1F4809180008F7D03C0809168
:1015F00080008F7780938000089584B58F7702C034
:1016000084B58F7D84BD08958091B0008F7703C02D
:101610008091B0008F7D8093B00008951F93CF9389
:10162000DF93282F30E0F901E358FF4F8491F9014F
:10163000E75CFE4FD491F901EB5DFE4FC491CC23E2
:10164000C1F0162F81110E94E50AEC2FF0E0EE0F99
:10165000FF1FE55EFE4FA591B4919FB7F89411115D
:1016600004C08C91D095D82302C0EC91DE2BDC9382
:101670009FBFDF91CF911F910895CF92DF92EF929C
:10168000FF920F931F93CF93DF9300D0CDB7DEB7B8
:1016900069834A83880F991F0091E2071091E3073D
:1016A000000F111FECE8F7E09F012C58374020177E
:1016B000310714F41192F8CF2981FC01E457F84F57
:1016C00021838A81808360E08091E0070E940E0B75
:1016D0001016110604F501501109F801E457F84FEE
:1016E000E080D090DE07C090DC0788E0F82E6E2DF9
:1016F000661F6627661F8C2D0E940E0BEE0C61E0A4
:101700008D2D0E940E0B60E08D2D0E940E0BFA9421
:10171000F110EDCFDDCF61E08091E0070F900F90E9
:10172000DF91CF911F910F91FF90EF90DF90CF90BD
:101730000C940E0BEF92FF921F93CF93DF9397FDC4
:101740001DC02091E2073091E30782179307B4F49C
:10175000EC0123E0880F991F2A95E1F79C0124569C
:10176000384F790111E0F70111927F0140E0612FBC
:10177000CE010E943D0B1F5F1930A9F7DF91CF9179
:101780001F91FF90EF9008952091E2073091E307B9
:1017900012161306C4F488309105A8F4603198F449
:1017A000E62FF0E0EF56FF4FE4914111E068DC01D5
:1017B000A457B84F5096EC9361E0680F4E2F80E02D
:1017C00090E00C943D0B0895CF93DF9390E0FC01E3
:1017D000E75CFE4F2491FC01EB5DFE4F8491882372
:1017E00061F190E0880F991FFC01ED58FF4FC59102
:1017F000D491FC01E55EFE4FA591B491611109C041
:101800009FB7F8948881209582238883EC912E23BA
:101810000BC0623061F49FB7F8948881322F309505
:1018200083238883EC912E2B2C939FBF06C08FB708
:10183000F894E8812E2B28838FBFDF91CF910895F4
:101840003FB7F8948091C0069091C106A091C2065E
:10185000B091C30626B5A89B05C02F3F19F001968D
:10186000A11DB11D3FBFBA2FA92F982F8827820F26
:10187000911DA11DB11DBC01CD0142E0660F771F76
:10188000881F991F4A95D1F708952FB7F894609152
:10189000BC067091BD068091BE069091BF062FBF19
:1018A00008950F931F93CF93DF93D82FC62F0E94D5
:1018B000450C0091E8071091E9072091EA07309163
:1018C000EB07DC01CB01801B910BA20BB30B853620
:1018D0009105A105B10560F081E0C8270E94450C83
:1018E0006093E8077093E9078093EA079093EB070A
:1018F0006C2F8D2F0E940E0B8C2FDF91CF911F919B
:101900000F91089581E391E090936E0780936D07A6
:1019100080914402909145028D56974071F4E09178
:101920008007F091810790818091820780958923BB
:10193000808310924502109244020895CF93DF9362
:10194000CDB7DEB76E970FB6F894DEBF0FBECDBF32
:10195000789484B5826084BD84B5816084BD85B58A
:10196000826085BD85B5816085BD80916E00816096
:1019700080936E001092810080918100826080933C
:10198000810080918100816080938100809180003E
:101990008160809380008091B10084608093B10069
:1019A0008091B00081608093B00080917A00846063
:1019B00080937A0080917A00826080937A0080918F
:1019C0007A00816080937A0080917A0080688093A9
:1019D0007A001092C1008E010F5F1F4FC8010E9454
:1019E000B104CD80D12CEC80F12CC8010E944104BF
:1019F00090E0069667E070E00E944714A601B701E8
:101A00000E9452088093AE06E091D406F091D5066C
:101A100082E08083E091D006F091D1061082E091BF
:101A2000D206F091D3068FEC80831092DC06E09111
:101A3000D806F091D90686E08083E091D606F09131
:101A4000D706808180618083E091D606F091D70629
:101A5000808188608083E091D606F091D7068081EE
:101A600080688083E091D606F091D70680818F7DD3
:101A70008083109288071092870710928607109231
:101A8000850710928407109283078DE991E0909367
:101A90008A078093890790917907963108F058C09A
:101AA0002DEB30E030938407209383072BE931E05E
:101AB00030938607209385072CE231E03093880726
:101AC0002093870740916800983058F031E09E30AD
:101AD00008F430E021E0822F01C0880F3A95EAF740
:101AE00001C084E0842B80936800983038F09E30E9
:101AF00040F0963148F020E030E008C02DE630E0BC
:101B000005C02BE630E002C02CE630E030938107C0
:101B100020938007983030F481E001C0880F9A95B7
:101B2000EAF70EC0292F30E09E3018F42850310912
:101B300002C02E50310981E001C0880F2A95EAF7D2
:101B4000809382078091890790918A070197F1F726
:101B50008091870790918807892B49F1E091440291
:101B6000F091450227E0ED36F20709F1309739F0A0
:101B7000A389B4899C918589809589238C938091D0
:101B80008B078E7F80938B07109243021092420244
:101B90008DE697E09093450280934402E0918007A0
:101BA000F0918107908180918207892B808380E169
:101BB00097E2A0E0B0E08093C8069093C906A09396
:101BC000CA06B093CB0610924D0210924C021092AE
:101BD0004B0210924A020E94720489EA92E09093AA
:101BE0004902809348028AEA92E0909347028093E8
:101BF00046020E9404098091E2079091E3071816BB
:101C0000190634F441E06CE080E090E00E943D0B66
:101C10008091E2079091E3071816190634F445E025
:101C20006AE080E090E00E943D0B80E090E00E943E
:101C30009A0B60E085E00E94E40B61E084E00E9482
:101C4000E40B61E08AE00E94E40B61E08BE00E941B
:101C5000E40B27E0C22ED12CCE0149960E94B1049C
:101C6000CE0149960E94410490E00696B6010E947A
:101C700047149C019091AE06B4E1BB2EB29EF001D8
:101C8000B39EF00D1124E90FF11D83E0EE0FFF1F4D
:101C90008A95E1F7E25BFD4F20803180CE014996C5
:101CA0000E94410490E00696B6010E9447149C01F0
:101CB0009091AE06B29EF001B39EF00D1124E90F93
:101CC000F11D93E0EE0FFF1F9A95E1F7E25BFD4FE8
:101CD000428053808C8D90E02816390609F06DC043
:101CE0008D8D90E04816590609F067C0CE014996DF
:101CF0000E94410490E00696B6010E9447149C01A0
:101D00009091AE06B29EF001B39EF00D1124E90F42
:101D1000F11D73E0EE0FFF1F7A95E1F7E25BFD4FD7
:101D2000E480F580EE0CFF1CF092BA06E092B90652
:101D3000CE0149960E94410490E00696B6010E94A9
:101D400047149C019091AE06B29EF001B39EF00D37
:101D50001124E90FF11DA3E0EE0FFF1FAA95E1F793
:101D6000E25BFD4F86819781092E000CAA0BBB0B0D
:101D70008093B5069093B606A093B706B093B806C5
:101D8000C7010E94A80A6091B5067091B6068091BD
:101D9000B7069091B8064AE00E94570A10920201D5
:101DA000F090AE0680E090E00E94BC138F1529F001
:101DB0006F2D80E090E00E94C4130E94450C80903B
:101DC000F0079090F107A090F207B090F307DC01C4
:101DD000CB0188199909AA09BB09893E9340A1053D
:101DE000B10508F4ABC10E94450C6093F0077093F5
:101DF000F1078093F2079093F307E2E8F0E0849113
:101E0000EEE3F1E0E490EAE2F1E0F490FF20A1F0EB
:101E100081110E94E50AEF2DF0E0EE0FFF1FEF5E4B
:101E2000FE4FA591B4918C91E82231E020E009F4B5
:101E300030E0832F922F02C080E090E0282F2170A5
:101E40002093B2062091B106222319F1892B09F1C2
:101E500081E08093B4068091AF069091B006019620
:101E60008A3091052CF49093B0068093AF0604C09D
:101E70001092B0061092AF06F090AF0680E090E0AE
:101E80000E949A0B40E06F2D80E090E00E94C40B0E
:101E900055C18091B406882309F44AC18091AF06E8
:101EA0009091B0068230910511F1C4F4019709F0C8
:101EB00039C11092020121E030E040E050E020936F
:101EC000B5063093B6064093B7065093B80682E045
:101ED00090E09093BA068093B90624C184309105AE
:101EE000D9F0069709F01EC181E090E0F5C010928C
:101EF000020184E090E09093BA068093B90682E0F4
:101F000090E0A0E0B0E08093B5069093B606A09371
:101F1000B706B093B80606C11092AE06E12CF12CBC
:101F2000A12CB12C812C912C54E1752E97E08916AF
:101F300091040CF06EC00E947F08609101018BE05B
:101F400090E00E94510C8DE697E00E944802892B98
:101F500069F38DE697E00E946002009739F30197DC
:101F60008F36910571F08E3D910579F081329105A2
:101F7000E1F5EFEF8E1A9E0AE12CF12CA12CB12C89
:101F8000D5CFAFEFEA1AFA0AD1CF789C7001799CCD
:101F9000F00C1124EA0CFB1CC70143E0880F991FC9
:101FA0004A95E1F7FC01E25BFD4F7F018081918161
:101FB0000E94A80AD70112968D919C9113970E94B6
:101FC000A80AF701848195810E94A80AD701169674
:101FD0008D919C9117970E94A80A0E944F0ABFEF0B
:101FE000AB1ABB0AE12CF12CA1CF789CF001799CB3
:101FF000F00D1124EA0DFB1DEE0FFF1FEE0FFF1F6A
:10200000EE0DFF1DEE0FFF1FE25BFD4F91838083FE
:102010008DCF9EE4892E92E0992E81E090E03C01E4
:10202000F0E56F0E711C54017C01D5018D919C91DE
:102030001197E0E1F7E28E9F90018F9F300D9E9FF8
:10204000300D112412964D915C911397F4E6F49F94
:10205000C001F59F900D1124820F931F14964D918E
:102060005C9115976AE0649F9001659F300D112483
:10207000820F931F16962D913C911797820F931FF5
:10208000092E000CAA0BBB0B89839A83AB83BC83FC
:10209000B801C7010E94270869817A818B819C81E0
:1020A000611571058105910511F00E94D80A84E03F
:1020B000E80EF11C98E0A90EB11CE614F70409F033
:1020C000B4CFC701A0EA8A0E911CB1E3EB16B2E0CF
:1020D000FB0609F0A4CF26C05C01E0E5AE0EB11C02
:1020E0007C0119821A821B821C82B801C7010E94DE
:1020F000270869817A818B819C8161157105810531
:10210000910511F00E94D80AF4E0EF0EF11CAE1414
:10211000BF0439F7C50121E3A21622E0B206E1F6B9
:102120000E94040960E08BE00E940E0B10920101F6
:102130001092B0061092AF061092B4068091B206CB
:102140008093B106E090B906F090BA061E141F0401
:102150000CF04DC00E947F080E94450C8090E4075F
:102160009090E507A090E607B090E7079B01AC01CF
:10217000281939094A095B0949015A012091B50614
:102180003091B6064091B7065091B806A8EEB3E07C
:102190000E94D2139B01AC01C70181709927BC0139
:1021A000990F880B990B0E94231497012F5F3F4FC3
:1021B0002170332748EE53E0249FF001259FF00D56
:1021C000349FF00D11249F01FF0F440B550BDC01D0
:1021D000CB01820F931FA41FB51F88159905AA056F
:1021E000BB0540F480910201811104C04BC081E025
:1021F000809302018091B406882349F06091010127
:102200008BE090E00E94510C8093010108C0609126
:1022100000018AE090E00E94510C809300010E942E
:10222000450C8090EC079090ED07A090EE07B090E1
:10223000EF07DC01CB0188199909AA09BB09883E7F
:102240009340A105B10540F08091B406811104C00E
:10225000809102018111A9C0AD8CB12CEC8CF12CC4
:10226000CE0149960E94410490E00696B6010E9474
:102270004714A501B7010E9452088093AE060E9440
:10228000D501EACC0E94450C6093E4077093E50702
:102290008093E6079093E7076091B30681E0682793
:1022A0006093B30641E0E41AF108F092BA06E092B6
:1022B000B90684E00E940E0B1C8A1B8A1E8A1D8AA6
:1022C000188E1F8A4AE0B801C7010E948713F801DF
:1022D00001900020E9F731977F01E01AF10AB70178
:1022E000CE0143960E943603811105C0CE0143966C
:1022F0000E945D0307C0F88EEF8AB8018B899C8924
:102300000E9478161A8219821C821B821E821D82EC
:1023100067E070E0C8010E943603811104C0C80163
:102320000E945D0308C0DE82CD8263E471E0898192
:102330009A810E9478168F89988DAB88BC88A114E9
:10234000B10479F10097A9F0ED80FE80E80EF91E46
:10235000B701C8010E943603882319F129813A8107
:102360008D819E81B501820F931F0E947816FE8297
:10237000ED824D815E8169817A8184EC96E00E94D4
:10238000D3000E944F0A89819A81009711F00E9420
:102390001B158B899C89009709F42CCF0E941B1573
:1023A00029CFC8010E945D03E4CFAD8CB12C8C8C89
:1023B000912C80E090E00E949A0B8AE0E82EF12CAC
:1023C000C401B7010E944714982E40E083E090E0DA
:1023D0000E94C40B41E0692D82E090E00E94C40B92
:1023E000C501B7010E944714B82E40E081E090E09B
:1023F0000E94C40B40E06B2D80E090E00E94C40B73
:10240000C101B7010E944714B82E40E087E090E078
:102410000E94C40B41E06B2D86E090E00E94C40B4B
:10242000C201B7010E944714F82E40E085E090E019
:102430000E94C40B40E06F2D84E090E00E94C40B2A
:102440000E94450C6093EC077093ED078093EE07B4
:102450009093EF0701CFCF93DF931092C7061092AE
:10246000C60688EE93E0A0E0B0E08093C8069093A3
:10247000C906A093CA06B093CB062DE031E0309395
:10248000C5062093C40625EC30E03093D106209396
:10249000D00624EC30E03093D3062093D20620EC13
:1024A00030E03093D5062093D40621EC30E0309311
:1024B000D7062093D60622EC30E03093D90620933D
:1024C000D80626EC30E03093DB062093DA06109233
:1024D000DD061092DE061092DF061092E0061092E2
:1024E0006407109263078093650790936607A09333
:1024F0006707B09368078FE191E09093620780933C
:1025000061070E94450C0E94450C6093F007709390
:10251000F1078093F2079093F3070E94450C6093B4
:10252000EC077093ED078093EE079093EF070E94FE
:10253000450C0E94450C6093E8077093E90780936F
:10254000EA079093EB070E94450C6093E4077093B1
:10255000E5078093E6079093E707C9E0D0E0D093C2
:10256000DD07C093DC0788E090E09093DF0780935D
:10257000DE0787E090E09093E1078093E00781E039
:1025800090E09093E3078093E20761E089E00E9486
:10259000E40B61E08091DE070E94E40B61E0809132
:1025A000E0070E94E40B61E08091E0070E940E0BBF
:1025B000D093DD07C093DC07ECE9F7E08CED97E002
:1025C00011928E179F07E1F7C0E0D0E08091E207FB
:1025D0009091E307C817D9075CF540E06FE0CE01A2
:1025E0000E943D0BD7FD0CC08091E2079091E3075C
:1025F000C817D9072CF447E06BE0CE010E943D0BD1
:1026000040E069E0CE010E943D0BCE010E949A0B92
:10261000D7FD0CC08091E2079091E307C817D90756
:102620002CF440E06CE0CE010E943D0B2196CECF11
:102630001092700710926F0788EE93E0A0E0B0E070
:102640008093710790937207A0937307B0937407F8
:1026500081E391E090936E0780936D071092840759
:1026600010928307109286071092850710928807B0
:102670001092870710928A071092890760918B0742
:102680006E7F6D7F60938B076695617081E0682730
:1026900083E00E940E0B61E083E00E94E40BECE318
:1026A000F1E0E491E0937D07E8E2F1E0E491F0E00D
:1026B000EE0FFF1FE55EFE4F8591949190937F078B
:1026C00080937E0760E082E00E94E40B80918B079C
:1026D00081FD04C061E082E00E940E0B82E08093E5
:1026E0007907EBE3F1E0E491E0937A07E7E2F1E0C8
:1026F000E491F0E0EE0FFF1FEF5EFE4F85919491A5
:1027000090937C0780937B07DF91CF910895BB273F
:102710004A3031F4992322F4BDE2909581959F4F80
:102720000C949313BB27FB015527AA27880F991FE9
:10273000AA1FA41710F0A41B83955051B9F7A05DF0
:10274000AA3308F0A95DA193009779F7B111B1936D
:102750001192CB010C94AC13DC01FC01672F719139
:102760007723E1F7329704C07C916D937083629177
:10277000AE17BF07C8F30895F999FECF92BD81BD8A
:10278000F89A992780B50895262FF999FECF1FBA98
:1027900092BD81BD20BD0FB6F894FA9AF99A0FBE8A
:1027A000019608950E941414A59F900DB49F900D5A
:1027B000A49F800D911D112408952F923F924F9256
:1027C0005F926F927F928F929F92AF92BF92CF92C1
:1027D000DF92EF92FF920F931F93CF93DF93CDB7CA
:1027E000DEB7CA1BDB0B0FB6F894DEBF0FBECDBF42
:1027F00009942A88398848885F846E847D848C8413
:102800009B84AA84B984C884DF80EE80FD800C811B
:102810001B81AA81B981CE0FD11D0FB6F894DEBFFE
:102820000FBECDBFED010895A29FB001B39FC001BF
:10283000A39F700D811D1124911DB29F700D811DEC
:102840001124911D0895DB018F939F930E94D21351
:10285000BF91AF91A29F800D911DA39F900DB29F3C
:10286000900D11240895AA1BBB1B51E107C0AA1F9C
:10287000BB1FA617B70710F0A61BB70B881F991F21
:102880005A95A9F780959095BC01CD01089597FBC5
:10289000072E16F4009407D077FD09D00E94331458
:1028A00007FC05D03EF4909581959F4F0895709553
:1028B00061957F4F0895A1E21A2EAA1BBB1BFD0153
:1028C0000DC0AA1FBB1FEE1FFF1FA217B307E4070F
:1028D000F50720F0A21BB30BE40BF50B661F771F67
:1028E000881F991F1A9469F7609570958095909547
:1028F0009B01AC01BD01CF010895EE0FFF1F0590B4
:10290000F491E02D09940F931F93CF93DF938230BE
:10291000910510F482E090E0E091FA07F091FB0756
:1029200020E030E0A0E0B0E0309719F14081518123
:102930000281138148175907C8F08417950769F475
:10294000109731F012960C93129713961C9327C090
:102950000093FA071093FB0722C02115310519F0E7
:102960004217530718F49A01BD01EF01DF01F80186
:10297000DBCF21153105F9F0281B390B2430310547
:1029800080F48A819B816115710521F0FB0193839D
:10299000828304C09093FB078093FA07FE0132966E
:1029A00044C0FE01E20FF31F81939193225031093D
:1029B000398328833AC02091F8073091F907232BF7
:1029C00041F420910501309106013093F9072093DD
:1029D000F80720910301309104012115310541F4DC
:1029E0002DB73EB74091070150910801241B350BCC
:1029F000E091F807F091F907E217F307A0F42E1B16
:102A00003F0B2817390778F0AC014E5F5F4F241752
:102A1000350748F04E0F5F1F5093F9074093F807B2
:102A20008193919302C0E0E0F0E0CF01DF91CF917C
:102A30001F910F910895CF93DF93009709F481C000
:102A4000FC01329713821282A091FA07B091FB0722
:102A5000109781F420813181820F931F2091F80714
:102A60003091F9072817390751F5F093F907E093EA
:102A7000F80767C0ED0120E030E0CE17DF0740F433
:102A80004A815B819E0141155105F1F0EA01F5CFC4
:102A9000D383C28340815181840F951FC817D90702
:102AA00059F488819981840F951F029691838083C0
:102AB0008A819B81938382832115310529F4F093C8
:102AC000FB07E093FA073DC0E901FB83EA834991E4
:102AD0005991C40FD51FEC17FD0761F480819181D6
:102AE000840F951F0296E9019983888382819381DF
:102AF0009B838A83E0E0F0E012968D919C9113977E
:102B0000009719F0FD01DC01F7CF8D919C91119791
:102B10009D012E5F3F4F820F931F2091F807309148
:102B2000F9072817390769F4309729F41092FB0741
:102B30001092FA0702C013821282B093F907A09391
:102B4000F807DF91CF910895A0E0B0E0EAEAF5E15F
:102B50000C94E113EC01009721F4CB010E94831443
:102B6000B4C0FC01E60FF71F9C0122503109E217A7
:102B7000F30708F4A8C0D9010D911C91119706170D
:102B80001707B0F00530110508F49BC0C801049781
:102B90008617970708F495C002501109061B170BFA
:102BA000019311936D937C93CF010E941B1589C0F3
:102BB0005B01A01AB10A4C01800E911EA091FA0788
:102BC000B091FB07612C712CE12CF12C109709F4CA
:102BD00046C08D919C911197A815B905B1F56C016E
:102BE00042E0C40ED11CCA14DB0478F14C018A18EF
:102BF0009B08640142E0C40ED11C1296BC9012974F
:102C00001396AC91B5E0CB16D10440F0B282A38309
:102C100091828082D9016D937C9309C00E5F1F4F12
:102C2000800F911FF90191838083EB2DFA2FE1141E
:102C3000F10431F0D7011396FC93EE93129741C043
:102C4000F093FB07E093FA073CC06816790608F496
:102C50003C017D0112960D90BC91A02DB7CF8091C3
:102C6000F8079091F90788169906E1F46616770639
:102C7000C8F48091030190910401009741F48DB74D
:102C80009EB74091070150910801841B950BE817EE
:102C9000F907C8F4F093F907E093F807F901718395
:102CA00060830FC0CB010E9483147C01009759F010
:102CB000A801BE010E946F16CE010E941B15C7011C
:102CC00004C0CE0102C080E090E0CDB7DEB7EEE0F8
:102CD0000C94FD1381E090E0F8940C947F16FB01B6
:102CE000DC0102C001900D9241505040D8F7089588
:102CF000FB01DC0101900D920020E1F7089510E046
:102D0000C8EAD0E004C0FE010E947D142196C93AB1
:082D1000D107C9F7F894FFCFC9
:102D18000101010000FC072000000000006601D34B
:102D280000FD00B3012E010C01200100000000038A
:102D380003D6023303F701CE02BA02AB0200000049
:102D480000F801D3003303F70148026002DF016491
:0E2D580000000052696E67696E67000D0A0088
:00000001FF
