:100000000C94A9000C94D1000C94D1000C94C7035B
:100010000C94C7030C94C7030C94D1000C94D1002A
:100020000C94D1000C94D1000C94D1000C94D1000C
:100030000C94D1000C94D1000C94D1000C94D100FC
:100040000C94DA0A0C94D1000C9495030C946F0371
:100050000C94D1000C94D1000C94D1000C94D100DC
:100060000C94F9060C94D1001F1C1F1E1F1E1F1F8D
:100070001E1F1E00000000240027002A00000000B0
:100080000800020100000304070000000000000057
:10009000007E306D79335B5F707F7B771F0D3D4F46
:1000A0004700000000000000000000000000000009
:1000B000000000000000000000000000008001803F
:1000C000007E306D79335B5F707F7B000000000045
:1000D0000000771F0D3D4F4700370000000E000065
:1000E00000670000000000000000000000000000A9
:1000F0000800771F0D3D4F4700370000000E001528
:100100001D6700000000000000000000000000006B
:100110000000000000230026002900000000002548
:100120000028002B00040404040404040402020256
:100130000202020303030303030102040810204028
:100140008001020408102001020408102000B511EB
:10015000240B11241FBECFEFD8E0DEBFCDBF28E0B7
:10016000AEE4B1E001C01D92A030B207E1F711E0AA
:10017000A0E0B1E0EAE4FCE202C005900D92AE34EA
:10018000B107D9F710E0C8EAD0E004C02197FE011A
:100190000E941B14C73AD107C9F70E94400B0C9468
:1001A00018160C940000CF92DF92EF92FF920F93FB
:1001B0001F93CF93DF936C017A018B01C0E0D0E0F5
:1001C000CE15DF0581F0D8016D918D01D601ED913D
:1001D000FC910190F081E02DC6010995892B11F069
:1001E0002196EECF7E01C701DF91CF911F910F9134
:1001F000FF90EF90DF90CF900895FC01538D448DD8
:10020000252F30E0842F90E0821B930B541710F0C1
:10021000CF96089501970895FC01918D828D9817CE
:1002200061F0828DDF01A80FB11D5D968C91928DDA
:100230009F5F9F73928F90E008958FEF9FEF0895D7
:10024000FC01918D828D981731F0828DE80FF11DA0
:10025000858D90E008958FEF9FEF0895FC01918DBB
:10026000228D892F90E0805C9F4F821B91098F73B4
:10027000992708958BEB96E00E942E0121E0892BAF
:1002800009F420E0822F0895FC01848DDF01A80F7E
:10029000B11DA35ABF4F2C91848D90E001968F73AE
:1002A0009927848FA689B7892C93A089B1898C91CD
:1002B000837080648C93938D848D981306C002881C
:1002C000F389E02D80818F7D80830895EF92FF92E6
:1002D0000F931F93CF93DF93EC0181E0888F9B8D69
:1002E0008C8D981305C0E889F989808185FD26C029
:1002F000F62E0B8D10E00F5F1F4F0F731127E02EAE
:100300008C8DE8120CC00FB607FCFACFE889F9898A
:10031000808185FFF5CFCE010E944401F1CF8B8D06
:10032000FE01E80FF11DE35AFF4FF0829FB7F894EA
:100330000B8FEA89FB89808180620AC09FB7F8949D
:10034000EE89FF896083E889F98980818370806400
:1003500080839FBF81E090E0DF91CF911F910F914B
:10036000FF90EF900895CF93DF93EC01888D882361
:10037000C9F0EA89FB89808185FD05C0A889B98912
:100380008C9186FD0FC00FB607FCF5CF808185FFED
:10039000F2CFA889B9898C9185FFEDCFCE010E945B
:1003A0004401E7CFDF91CF91089580E090E0892B61
:1003B00029F00E943A0181110C94000008952091C7
:1003C0004402309145022817390771F49091420296
:1003D00080914302981741F0E0914202F0E0EE5F15
:1003E000FD4F808190E008958FEF9FEF089508956D
:1003F0001F93CF93DF93DC015C968D919C915D9769
:10040000009739F421E030E013963C932E93129735
:100410003BC05196ED91FC91529750962C9150977C
:10042000322F30951FB75E964C915E97742F727085
:1004300041FD6095F8944081772311F0422B01C073
:1004400043234083EC012197F1F748E0508160FF9E
:1004500002C0522B01C053235083EC012197F1F7C6
:100460006695415099F78081772319F08323808323
:1004700002C0282B20831FBF5C968D919C915D97B5
:100480000197F1F781E090E0DF91CF911F910895FE
:1004900020914402309145022817390771F4809168
:1004A00043022091420290E0805C9F4F821B9109A1
:1004B00060E470E00E94E513089580E090E0089504
:1004C000209144023091450228173907B9F49091E0
:1004D000420280914302981789F0E0914202F0E0D5
:1004E000EE5FFD4F80812091420230E02F5F3F4F51
:1004F0002F7333272093420290E008958FEF9FEFF0
:10050000089540917101262F30E0240F311D2132D2
:100510003105DCF42091DC012430C9F4FC0180E0D9
:1005200090E0861758F4309171012191DC01AF5AA7
:10053000BE4FA30FB11D2C930196F3CF8091710193
:10054000680F6093710180E0089581E0089582E072
:10055000089508950895E0914D0280914C02E817A6
:1005600030F4F0E0EE51FE4F808190E008958FEF7F
:100570009FEF089590914D0280914C02981750F48E
:10058000E92FF0E0EE51FE4F208130E09F5F909325
:100590004D0202C02FEF3FEFC901089580914C0238
:1005A00090E020914D02821B91090895CF92DF9235
:1005B000EF92FF920F931F93CF93DF937C01CB01B8
:1005C0008A0120919401222389F0EB016B01C40E72
:1005D000D51ECC15DD0569F06991D701ED91FC912F
:1005E0000190F081E02DC7010995F3CF642F0E949F
:1005F0008102C801DF91CF911F910F91FF90EF9081
:10060000DF90CF900895CF93DF931F92CDB7DEB7E1
:100610006983209194012223D1F020914A02203253
:1006200040F021E030E0FC013383228380E090E061
:1006300015C080914B02E82FF0E0EB56FE4F9981F8
:1006400090838F5F80934B0280934A0205C061E0E4
:10065000CE0101960E94810281E090E00F90DF912F
:10066000CF910895089580E090E008950F931F932F
:10067000CF93DF93EC0188819981009729F02A813B
:100680003B812617370788F48B016F5F7F4F0E94ED
:100690004215009761F0998388831B830A832C811C
:1006A0003D81232B11F4FC01108281E001C080E028
:1006B000DF91CF911F910F910895CF93DF93EC01BC
:1006C00088819981009711F00E94B91419821882CB
:1006D0001D821C821B821A82DF91CF9108951F9286
:1006E0000F920FB60F9211242F933F934F935F9366
:1006F0006F937F938F939F93AF93BF93EF93FF93EA
:100700008BEB96E00E944401FF91EF91BF91AF9176
:100710009F918F917F916F915F914F913F912F9119
:100720000F900FBE0F901F9018951F920F920FB64B
:100730000F9211242F938F939F93EF93FF93E09148
:10074000CB06F091CC068081E091D106F091D206E3
:1007500082FD12C090818091D4068F5F8F732091AB
:10076000D506821751F0E091D406F0E0E554F94F38
:10077000958F8093D40601C08081FF91EF919F9166
:100780008F912F910F900FBE0F901F9018951F9271
:100790000F920FB60F9211242F933F934F935F93B5
:1007A0006F937F938F939F93AF93BF93EF93FF9339
:1007B000E0914402F0914502309709F451C0968DC2
:1007C000A685B785858591FF04C09C91892329F46E
:1007D00047C09C91892309F043C0A389B4899C91A7
:1007E0008589809589238C93868997890197F1F76C
:1007F000608D718DA685B785558538E020E0CB01E9
:100800000197F1F7822F90E095958795282F4C91CD
:10081000452309F02068315091F7868D81FD2095A0
:100820008091430290E001968F73992730914202A4
:10083000381749F0A0914302B0E0AE5FBD4F2C9352
:100840008093430203C0868D8160868F828D938D55
:100850000197F1F7A389B4899C918589892B8C93A1
:10086000FF91EF91BF91AF919F918F917F916F9188
:100870005F914F913F912F910F900FBE0F901F905E
:100880001895FC0161819081492F50E0228130E070
:10089000E8E6F0E081E0861730F47491270F311D0F
:1008A0008F5F3196F8CF633020F0937011F42F5F93
:1008B0003F4F6DE671E0469FC001479F900D569FE8
:1008C000900D112405964D5F5F4F569547955695AF
:1008D0004795840F951F820F931F67E070E00E9479
:1008E000D11308951092DC0181E08093DB01109216
:1008F000D60161E082E10E94660961E083E10E9425
:100900006609E9EBF0E080818E7F808380818D7FB6
:10091000808388E48093B80085E48093BC000895C8
:10092000CF93DF9391E0909350018823B9F0C09169
:10093000B800D091BA008091BC008A7B8093BC0043
:1009400060E082E10E94660960E083E10E9466093E
:100950000E947204D093BA00C093B800DF91CF9187
:1009600008958F929F92AF92BF92CF92DF92EF92B3
:10097000FF920F931F93CF93DF938C0181E08093BD
:10098000940188E68093B50110924B0210924A02BE
:1009900060E088E597E00E940303C0914A02C132FB
:1009A00008F0B9C00E94780A6B017C018091DC01DB
:1009B000882311F18091DE019091DF01A091E00187
:1009C000B091E101892B8A2B8B2B81F30E94780A4D
:1009D0008090DE019090DF01A090E001B090E101F5
:1009E000DC01CB018C199D09AE09BF098816990657
:1009F000AA06BB06D8F680C082E08093DC0181E0C5
:100A00008093DB018FEF8093DA011092D901C093BC
:100A1000D801A5E9B1E0E6EBF1E080E0C81721F0EC
:100A20009D9191938F5FFACF1092D7018091D7015A
:100A3000806D8093D7018091D601813089F5109225
:100A4000D6010E94780A6B017C018091D7018093C6
:100A5000BB008091DE019091DF01A091E001B09197
:100A6000E101892B8A2B8B2BA9F00E94780A8090B8
:100A7000DE019090DF01A090E001B090E101DC0187
:100A8000CB018C199D09AE09BF0988169906AA06E3
:100A9000BB0690F18091BC0083FDD7CF85EC01C0EF
:100AA00085EE8093BC000E94780A6B017C018091E6
:100AB000DC01823031F58091DE019091DF01A0915F
:100AC000E001B091E101892B8A2B8B2B81F30E94ED
:100AD000780A8090DE019090DF01A090E001B09054
:100AE000E101DC01CB018C199D09AE09BF09881613
:100AF0009906AA06BB06D8F68091DD010E949004F3
:100B00000AC08091DA018F3F31F08091DA018032A2
:100B100011F08091DA0110924B0210924A02109269
:100B200094010E94780A6B017C01C091DC01CC2306
:100B300039F18091DE019091DF01A091E001B09147
:100B4000E101892B8A2B8B2B81F30E94780A8090FC
:100B5000DE019090DF01A090E001B090E101DC01A6
:100B6000CB018C199D09AE09BF0988169906AA0602
:100B7000BB06D8F68091DD010E949004C0E08DC0D4
:100B800081E08093DC018093DB019FEF9093DA0199
:100B90001092D90196E09093D8018093D70180916B
:100BA000D701806D8093D7018091D601813089F57E
:100BB0001092D6010E94780A6B017C018091D701C6
:100BC0008093BB008091DE019091DF01A091E00154
:100BD000B091E101892B8A2B8B2BA9F00E94780A16
:100BE0008090DE019090DF01A090E001B090E101E3
:100BF000DC01CB018C199D09AE09BF098816990645
:100C0000AA06BB0690F18091BC0083FDD7CF85EC8E
:100C100001C085EE8093BC000E94780A6B017C01C4
:100C20008091DC01813031F58091DE019091DF010E
:100C3000A091E001B091E101892B8A2B8B2B81F3EC
:100C40000E94780A8090DE019090DF01A090E00180
:100C5000B090E101DC01CB018C199D09AE09BF09FF
:100C600088169906AA06BB06D8F68091DD010E9477
:100C7000900413C08091D901873018F48091D90174
:100C800001C087E0E6EBF1E0A2EEB1E0C0E0C817FA
:100C900021F091919D93CF5FFACF10924D02C093B6
:100CA0004C0288E597E00E94BA028F77982F9295C0
:100CB0009F70DAEFF82E9D9FF00C112488E597E0E5
:100CC0000E94BA029C01332794E0359527959A95A6
:100CD000E1F7E82ED29FE00C112488E597E00E940E
:100CE000BA029C01332744E0359527954A95E1F7F0
:100CF000D82ED29FD00C112488E597E00E94BA022A
:100D000088E597E00E94BA029C01332754E03595AC
:100D100027955A95E1F7C82ED29FC00C112488E57B
:100D200097E00E94BA029C01332764E0359527952D
:100D30006A95E1F7C82FD29FC00D112488E597E08E
:100D40000E94BA029C01332774E0359527957A9565
:100D5000E1F7D29F800D1124F8018083C183C28204
:100D6000D382E482F582C801DF91CF911F910F9168
:100D7000FF90EF90DF90CF90BF90AF909F908F90BB
:100D8000089585ED8093BC008091DE019091DF0194
:100D9000A091E001B091E1010796A11DB11D23E0F2
:100DA000B695A795979587952A95D1F72091BC0080
:100DB00024FF1CC04091DE015091DF016091E001F1
:100DC0007091E101452B462B472B81F30097A1053C
:100DD000B10541F025E32A95F1F700000197A1093B
:100DE000B109E4CF8091DD010C9490041092DC01F4
:100DF00008951F920F920FB60F9211242F933F93D5
:100E00004F935F936F937F938F939F93AF93BF9312
:100E1000EF93FF938091B900887F803609F49CC0DE
:100E200068F5883209F45BC090F4803109F454C04D
:100E300038F4882309F4F6C0883009F44DC0F6C0B0
:100E4000883109F44CC0803209F45DC0EFC08034B1
:100E500009F468C048F4803309F455C0883309F0B8
:100E6000E5C08093DA01D8C0803509F44FC08835D9
:100E700009F45DC0883409F0D9C0D6C0883909F4B6
:100E8000C7C0A8F4883709F467C038F4883609F475
:100E900063C0803709F460C0C9C0883809F4B8C09D
:100EA000803909F45FC0803809F0C0C05BC0803B66
:100EB00009F486C038F4803A09F466C0883A09F427
:100EC0007FC0B4C0803C09F4A7C0883C09F4A4C02A
:100ED000883B09F48AC0AAC08091D70110C09091C4
:100EE000D9018091D801981770F5E091D90181E07E
:100EF0008E0F8093D901F0E0EA54FE4F80818093F9
:100F0000BB0085EC86C08093DA018EC0E091D901E8
:100F100081E08E0F8093D9018091BB00F0E0EA540C
:100F2000FE4F80839091D9018091D8016EC0E091ED
:100F3000D90181E08E0F8093D9018091BB00F0E050
:100F4000EA54FE4F80838091DB0181116DC081E006
:100F50008093D60184EA61C083E08093DC01109223
:100F60009301CFCF80919301803208F051C0E0917E
:100F7000930181E08E0F809393018091BB00F0E09C
:100F8000ED58FE4F8083BDCF85EC8093BC0010925E
:100F9000DC0180919301803230F4E0919301F0E024
:100FA000ED58FE4F10826091930170E0E09146028F
:100FB000F091470283E791E009951092930136C0C2
:100FC00084E08093DC011092720110927101E09133
:100FD0004802F0914902099580917101811105C083
:100FE00081E08093710110925101E091720181E0E2
:100FF0008E0F80937201F0E0EF5AFE4F8081809354
:10100000BB009091720180917101981708F479CF1B
:1010100085E88093BC000AC085EC8093BC001092E8
:10102000DC0104C01092DA010E94C106FF91EF9129
:10103000BF91AF919F918F917F916F915F914F91F0
:101040003F912F910F900FBE0F901F901895BF9258
:10105000CF92DF92EF92FF920F931F93CF93DF9384
:1010600000D0CDB7DEB70E949D0A0091E307109132
:10107000E4072091E5073091E607DC01CB01801BF6
:10108000910BA20BB30B00913F01109140012091F5
:10109000410130914201081719072A073B0708F060
:1010A0004FC08DE289838FE58A8380E090E00E94C3
:1010B000F2090E949D0A6093E3077093E40780930E
:1010C000E5079093E60783E8C82E87E0D82EBB2477
:1010D000B39492E0E92EF12CC60183589740009119
:1010E0004E0110914F012091D9073091DA07121665
:1010F0001306CCF4800F911FB7010E94E513E1E0C5
:10110000F0E0EC0FFD1FE80FF91FE081E7FDE0E2E2
:10111000F0E0EF56FF4F4491F601408B6B2D80E0DD
:1011200090E00E949509FFEFCF1ADF0AB39489E09F
:10113000B812D2CF0F5F1F4F10934F0100934E0193
:101140000F900F90DF91CF911F910F91FF90EF9033
:10115000DF90CF90BF900895009769F0FC01019057
:101160000020E9F73197AF01481B590BBC018BEB0D
:1011700096E00C94D30080E090E008958F929F92C7
:10118000AF92BF920F931F93CF93DF93CDB7DEB78C
:10119000A1970FB6F894DEBF0FBECDBF19A24230A3
:1011A00008F44AE08E010F5D1F4F842E912CA12C74
:1011B000B12CA50194010E94F913E62FB901CA01CF
:1011C00001501109EA3014F4E05D01C0E95CD80176
:1011D000EC93232B242B252B61F7C8010E94AC082C
:1011E000A1960FB6F894DEBF0FBECDBFDF91CF91B1
:1011F0001F910F91BF90AF909F908F900895CF92C5
:10120000DF92EF92FF92CF93DF936C01990FEE087C
:10121000FF08F7FE19C06DE28BEB96E00E946601B5
:10122000EC0166277727CB016C197D098E099F0990
:101230004AE00E94BE088C0F9D1FDF91CF91FF9066
:10124000EF90DF90CF9008954AE0C701B601DF919B
:10125000CF91FF90EF90DF90CF900C94BE08CF938A
:10126000DF930E94FF08EC0183E491E00E94AC0848
:101270008C0F9D1FDF91CF910895833081F028F46A
:10128000813099F08230A1F008958730A9F088303C
:10129000B9F08430D1F4809180008F7D03C08091BB
:1012A00080008F7780938000089584B58F7702C087
:1012B00084B58F7D84BD08958091B0008F7703C081
:1012C0008091B0008F7D8093B00008951F93CF93DD
:1012D000DF93282F30E0F901E358FF4F8491F901A3
:1012E000E75CFE4FD491F901EB5DFE4FC491CC2336
:1012F000C1F0162F81110E943D09EC2FF0E0EE0F96
:10130000FF1FE55EFE4FA591B4919FB7F8941111B0
:1013100004C08C91D095D82302C0EC91DE2BDC93D5
:101320009FBFDF91CF911F910895CF92DF92EF92EF
:10133000FF920F931F93CF93DF9300D0CDB7DEB70B
:1013400069834A83880F991F0091D9071091DA07A2
:10135000000F111FE3E8F7E09F01235837402017E3
:10136000310714F41192F8CF2981FC01ED57F84FA1
:1013700021838A81808360E08091D7070E9466097B
:101380001016110604F501501109F801ED57F84F38
:10139000E080D090D507C090D30788E0F82E6E2D5E
:1013A000661F6627661F8C2D0E946609EE0C61E0A1
:1013B0008D2D0E94660960E08D2D0E946609FA94C9
:1013C000F110EDCFDDCF61E08091D7070F900F9046
:1013D000DF91CF911F910F91FF90EF90DF90CF9011
:1013E0000C946609EF92FF921F93CF93DF9397FDC2
:1013F0001DC02091D9073091DA0782179307B4F402
:10140000EC0123E0880F991F2A95E1F79C012D56E6
:10141000384F790111E0F70111927F0140E0612F0F
:10142000CE010E9495091F5F1930A9F7DF91CF9176
:101430001F91FF90EF9008952091D9073091DA071E
:1014400012161306C4F488309105A8F4603198F49C
:10145000E62FF0E0EF56FF4FE4914111E068DC0128
:10146000AD57B84F5096EC9361E0680F4E2F80E077
:1014700090E00C9495090895CF93DF9390E0FC01E0
:10148000E75CFE4F2491FC01EB5DFE4F84918823C5
:1014900061F190E0880F991FFC01ED58FF4FC59155
:1014A000D491FC01E55EFE4FA591B491611109C094
:1014B0009FB7F8948881209582238883EC912E230E
:1014C0000BC0623061F49FB7F8948881322F309559
:1014D00083238883EC912E2B2C939FBF06C08FB75C
:1014E000F894E8812E2B28838FBFDF91CF91089548
:1014F0003FB7F8948091F8079091F907A091FA0707
:10150000B091FB0726B5A89B05C02F3F19F00196A7
:10151000A11DB11D3FBFBA2FA92F982F8827820F79
:10152000911DA11DB11DBC01CD0142E0660F771FC9
:10153000881F991F4A95D1F708952FB7F8946091A5
:10154000F4077091F5078091F6079091F7072FBF88
:1015500008950F931F93CF93DF93D82FC62F0E9428
:101560009D0A0091DF071091E0072091E10730917B
:10157000E207DC01CB01801B910BA20BB30B85367C
:101580009105A105B10560F081E0C8270E949D0A80
:101590006093DF077093E0078093E1079093E20781
:1015A0006C2F8D2F0E9466098C2FDF91CF911F9198
:1015B0000F9108951F920F920FB60F9211242F933F
:1015C0003F938F939F93AF93BF938091F407909134
:1015D000F507A091F607B091F7073091F30723E0E4
:1015E000230F2D3720F40196A11DB11D05C026E85B
:1015F000230F0296A11DB11D2093F3078093F407DA
:101600009093F507A093F607B093F7078091F8073A
:101610009091F907A091FA07B091FB070196A11DDF
:10162000B11D8093F8079093F907A093FA07B09340
:10163000FB07BF91AF919F918F913F912F910F9099
:101640000FBE0F901F90189581E391E0909365076E
:10165000809364078091440290914502845697409C
:1016600071F4E0917707F091780790818091790784
:101670008095892380831092450210924402089538
:10168000CF93DF93CDB7DEB7A8970FB6F894DEBF40
:101690000FBECDBF789484B5826084BD84B581606F
:1016A00084BD85B5826085BD85B5816085BD80912D
:1016B0006E00816080936E001092810080918100A5
:1016C000826080938100809181008160809381009D
:1016D000809180008160809380008091B10084605F
:1016E0008093B1008091B00081608093B0008091C0
:1016F0007A00846080937A0080917A00826080937F
:101700007A0080917A00816080937A0080917A00DB
:10171000806880937A001092C1001092BA06E0911E
:10172000CB06F091CC0682E08083E091C706F09171
:10173000C8061082E091C906F091CA068FEC80833A
:101740001092D306E091CF06F091D00686E0808318
:10175000E091CD06F091CE06808180618083E0919A
:10176000CD06F091CE06808188608083E091CD0621
:10177000F091CE06808180688083E091CD06F09163
:10178000CE0680818F7D808310927F0710927E0726
:1017900010927D0710927C0710927B0710927A07B7
:1017A0008DE991E090938107809380079091700775
:1017B000963108F058C02DEB30E030937B07209332
:1017C0007A072BE931E030937D0720937C072CE2E8
:1017D00031E030937F0720937E0740916800983076
:1017E00058F031E09E3008F430E021E0822F01C053
:1017F000880F3A95EAF701C084E0842B8093680053
:10180000983038F09E3040F0963148F020E030E0DB
:1018100008C02DE630E005C02BE630E002C02CE623
:1018200030E03093780720937707983030F481E0E8
:1018300001C0880F9A95EAF70EC0292F30E09E303C
:1018400018F42850310902C02E50310981E001C03E
:10185000880F2A95EAF78093790780918007909105
:1018600081070197F1F780917E0790917F07892B7F
:1018700049F1E0914402F091450227E0E436F20795
:1018800009F1309739F0A389B4899C9185898095B5
:1018900089238C93809182078E7F80938207109298
:1018A00043021092420284E697E0909345028093AF
:1018B0004402E0917707F091780790818091790751
:1018C000892B808380E197E2A0E0B0E08093BF069F
:1018D0009093C006A093C106B093C20610924D0229
:1018E00010924C0210924B0210924A020E94720413
:1018F00089EA92E090934902809348028AEA92E052
:1019000090934702809346024AE552E05AA349A3C6
:1019100001E010E0CE0101961C01DE011596B8A38E
:10192000AF8FFAE04F2E512C612C712CF801E05B47
:10193000FF4FFCA3EBA3E9A0FAA061015801A21894
:10194000B308C5018C0D9D1D0E945A13D6018D93BD
:101950006D01EF8DF8A1AE17BF0799F789809A80C6
:10196000AB80BC80C501B40120EA36E841E050E01C
:101970000E94F913CA01B901A30192010E94F9134F
:10198000FAE0F69F6001F79FD00C1124C501B40165
:1019900020E137E240E050E00E94F913CA01B901AA
:1019A000A30192010E94F9136C0D7D1DD7016D9367
:1019B0007C93C501B40128EE33E040E050E00E9482
:1019C000F913CA01B901A30192010E94F913BAE007
:1019D000B69F6001B79FD00C1124C501B40124E665
:1019E00030E040E050E00E94F913CA01B901A301C0
:1019F00092010E94F9136C0D7D1DF70173836283C0
:101A0000C501B401A30192010E94F9136DA37EA345
:101A10008FA398A7CA01B901A30192010E94F913EB
:101A2000D70115967C936E931497EDA1FEA117969E
:101A3000FC93EE93169781149104A104B10401F173
:101A40004AE0C501B4010E94BE0883E491E00E940F
:101A5000AC08C12CD12CF701EC0DFD1D80819181CA
:101A60000E942F09F2E0CF0ED11C28E0C216D1044B
:101A700091F783E491E00E94AC08C8010E942F090D
:101A80000C5F1F4F38E0E30EF11C4BA15CA1041763
:101A9000150709F052CF89A19AA180569F4F9AA3AA
:101AA00089A3013392E0190709F040CF8091D9074B
:101AB0009091DA071816190634F441E06CE080E0E2
:101AC00090E00E9495098091D9079091DA07181645
:101AD000190634F445E06AE080E090E00E94950940
:101AE00080E090E00E94F20960E085E00E943C0AFC
:101AF00061E084E00E943C0A61E08AE00E943C0AC6
:101B000061E08BE00E943C0A77E0E72EF12C412C4B
:101B1000512C32014394CE0149960E94B104CE016A
:101B200049960E94410490E00696B7010E94E51391
:101B30009C019091BA0644E1D42ED29EF001D39E2E
:101B4000F00D1124E90FF11D53E0EE0FFF1F5A9520
:101B5000E1F7E65AFD4FA081B181BAA3A9A3CE0156
:101B600049960E94410490E00696B7010E94E51351
:101B70009C019091BA06D29EF001D39EF00D1124E3
:101B8000E90FF11D63E0EE0FFF1F6A95E1F7E65ADA
:101B9000FD4F228133813CA32BA30E949D0A00911B
:101BA000EB071091EC072091ED073091EE07DC0177
:101BB000CB01801B910BA20BB30B0091EF0710918F
:101BC000F0072091F1073091F20780179107A207E3
:101BD000B30708F492C08C8D90E049A15AA1481730
:101BE000590709F08AC088EE93E0A0E0B0E0809346
:101BF000EF079093F007A093F107B093F2078D8D54
:101C000090E0ABA1BCA1A817B90709F076C0CE013E
:101C100049960E94410490E00696B7010E94E513A0
:101C20009C019091BA06D29EF001D39EF00D112432
:101C3000E90FF11DB3E0EE0FFF1FBA95E1F7E65A89
:101C4000FD4F04811581000F111F1093590200935D
:101C50005802CE0149960E94410490E00696B701D1
:101C60000E94E5139C019091BA06D29EF001D39E8A
:101C7000F00D1124E90FF11D93E0EE0FFF1F9A956F
:101C8000E1F7E65AFD4F86819781092E000CAA0BD9
:101C9000BB0B8093540290935502A0935602B093CD
:101CA0005702C8010E94FF086091540270915502CA
:101CB00080915602909157024AE00E94BE0810920D
:101CC00002011091BA061F5F1093BA0680E090E0FF
:101CD0000E945A13181729F0612F80E090E00E94AB
:101CE000621324E630E040E050E02093EF073093A9
:101CF000F0074093F1075093F2070E949D0A00916C
:101D0000E7071091E8072091E9073091EA07DC0125
:101D1000CB01801B910BA20BB30B893E9340A10515
:101D2000B10508F4A0C10E949D0A6093E707709373
:101D3000E8078093E9079093EA07E2E8F0E08491EE
:101D4000EEE3F1E00491EAE2F1E014911123A1F055
:101D500081110E943D09E12FF0E0EE0FFF1FEF5EC1
:101D6000FE4FA591B4918C91082331E020E009F455
:101D700030E0832F922F02C080E090E0282F217066
:101D80002093510220915002222319F1892B09F14D
:101D900081E08093530280914E0290914F02019610
:101DA0008A3091052CF490934F0280934E0204C028
:101DB00010924F0210924E0210914E0280E090E07D
:101DC0000E94F20940E0612F80E090E00E941C0A2E
:101DD0004AC180915302882309F43FC180914E0289
:101DE00090914F0282309105B9F08430910549F10C
:101DF000019709F02CC110920201409254025092B6
:101E00005502609256027092570282E090E09093E1
:101E10005902809358021BC11092020124E030E065
:101E2000309359022093580282E090E0A0E0B0E0A5
:101E30008093540290935502A0935602B093570298
:101E400006C1C1010E94B10400E010E0C12CD12CF8
:101E5000A12CB12CF4E19F2E97E0A916B1040CF04F
:101E60006BC00E942708609101018BE090E00E9406
:101E7000A90A84E697E00E944802892B69F384E668
:101E800097E00E946002009739F301978F36910521
:101E900071F08E3D910571F081329105C9F52FEFFA
:101EA000A21AB20A00E010E0C12CD12CD5CF0F5FEE
:101EB0001F4FD2CF9A9C80019B9C100D11240C0DBA
:101EC0001D1DE3E0000F111FEA95E1F7065A1D4FB3
:101ED000D8018D919C910E94FF08F8018281938125
:101EE0000E94FF08D80114968D919C9115970E942D
:101EF000FF08F801868197810E94FF0883E491E042
:101F00000E94AC08FFEFCF1ADF0A00E010E0A4CF78
:101F10009A9CF0019B9CF00D1124EC0DFD1DEE0F21
:101F2000FF1FEE0FFF1FE00FF11FEE0FFF1FE65A1E
:101F3000FD4F9183808390CF44E1A42EB12CC12C1E
:101F4000D12C54E1952E85010C191D0917FF02C0F3
:101F50000F5F1F4F159507950C0D1D1DC1010E94A8
:101F6000410490E00696B7010E94E513989EF001A7
:101F7000999EF00D1124E00FF11F33E0EE0FFF1FCB
:101F80003A95E1F7E65AFD4F8C8190E0208131814E
:101F90002817390759F5C1010E94410490E00696BF
:101FA000B7010E94E513989EF001999EF00D11244F
:101FB000E00FF11F93E0EE0FFF1F9A95E1F7E65A4D
:101FC000FD4F8D8190E022813381821793074CF47D
:101FD00068013FEFC31AD30AAC14BD040CF0B3CFB1
:101FE00034C0580141E0A41AB108F6CFC1010E94E3
:101FF000410490E00696B7010E94E513989EF00117
:10200000999EF00D1124E00FF11F83E0EE0FFF1FEA
:102010008A95E1F7E65AFD4F8C8190E0208131816D
:10202000821793072CF468015FEFC51AD50AD4CF45
:10203000CA14DB0429F48CE090E00E942F0905C04B
:10204000580181E0A81AB108C7CFC092BA0660E073
:102050008BE00E9466091092010110924F021092CB
:102060004E021092530280915102809350020091CF
:10207000580210915902101611060CF04DC00E9422
:1020800027080E949D0A8090DB079090DC07A090B3
:10209000DD07B090DE079B01AC01281939094A0918
:1020A0005B0949015A012091540230915502409137
:1020B000560250915702A8EEB3E00E9470139B01A4
:1020C000AC01C80181709927BC01990F880B990B4D
:1020D0000E94C11398012F5F3F4F2170332748EEB4
:1020E00053E0249FF001259FF00D349FF00D112443
:1020F0009F01FF0F440B550BDC01CB01820F931F97
:10210000A41FB51F88159905AA05BB0540F4809149
:102110000201811104C038C081E0809302018091E6
:102120005302882349F0609101018BE090E00E9406
:10213000A90A8093010108C0609100018AE090E043
:102140000E94A90A809300010E949D0A0091E30762
:102150001091E4072091E5073091E607DC01CB01FF
:10216000801B910BA20BB30B883E9340A105B105D8
:1021700040F080915302811104C0809102018111CD
:1021800099C00E94D501C7CC0E949D0A6093DB07CD
:102190007093DC078093DD079093DE076091520215
:1021A00081E068276093520201501109109359028F
:1021B0000093580284E00E9466091C8A1B8A1E8ACA
:1021C0001D8A188E1F8A4AE0B101C8010E9425139A
:1021D000F10101900020E9F731978F0102191309ED
:1021E000B801CE0143960E943603811105C0CE018D
:1021F00043960E945D0307C0188F0F8BB1018B8936
:102200009C890E9411161A8219821C821B821E82CE
:102210001D8267E070E0C1010E943603811104C095
:10222000C1010E945D030AC047E050E05E834D8318
:1022300066E471E089819A810E9411168F89988DD8
:10224000CB88DC88C114D10489F10097A9F00D81F5
:102250001E81080F191FB801C1010E94360388238F
:1022600029F129813A818D819E81B601820F931FC8
:102270000E9411161E830D834D815E8169817A81D2
:102280008BEB96E00E94D30083E491E00E94AC08BF
:1022900089819A81009711F00E94B9148B899C89D9
:1022A000009709F43CCF0E94B91439CFC1010E94B4
:1022B0005D03E2CFCD8CD12CAC8CB12C80E090E0D2
:1022C0000E94F2090AE010E0C501B8010E94E5137E
:1022D000B82E40E083E090E00E941C0A41E06B2DA4
:1022E00082E090E00E941C0AC601B8010E94E5133A
:1022F000D82E40E081E090E00E941C0A40E06D2D65
:1023000080E090E00E941C0A89A19AA1B8010E9475
:10231000E513D82E40E087E090E00E941C0A41E0DF
:102320006D2D86E090E00E941C0A8BA19CA1B80153
:102330000E94E513182F40E085E090E00E941C0AFF
:1023400040E0612F84E090E00E941C0A0E949D0AF8
:102350006093E3077093E4078093E5079093E607A3
:1023600081E090E00E94FF080CCFCF93DF931092A2
:10237000BE061092BD0688EE93E0A0E0B0E0809328
:10238000BF069093C006A093C106B093C2062DE08D
:1023900031E03093BC062093BB0625EC30E030934F
:1023A000C8062093C70624EC30E03093CA06209379
:1023B000C90620EC30E03093CC062093CB0621EC0C
:1023C00030E03093CE062093CD0622EC30E03093FF
:1023D000D0062093CF0626EC30E03093D20620932F
:1023E000D1061092D4061092D5061092D6061092FD
:1023F000D70610925B0710925A0780935C07909360
:102400005D07A0935E07B0935F078FE191E0909323
:1024100059078093580784E690E0A0E0B0E08093ED
:10242000EF079093F007A093F107B093F2070E9493
:102430009D0A6093EB077093EC078093ED079093F0
:10244000EE070E949D0A6093E7077093E807809368
:10245000E9079093EA070E949D0A6093E30770934F
:10246000E4078093E5079093E6070E949D0A0E9487
:102470009D0A6093DF077093E0078093E1079093D4
:10248000E2070E949D0A6093DB077093DC0780934C
:10249000DD079093DE07C8E0D0E0D093D407C09367
:1024A000D30787E090E09093D6078093D50789E023
:1024B00090E09093D8078093D70781E090E09093C5
:1024C000DA078093D90761E088E00E943C0A61E066
:1024D0008091D5070E943C0A61E08091D7070E9455
:1024E0003C0A61E08091D7070E946609D093D40727
:1024F000C093D307E3E9F7E083ED97E011928E17DD
:102500009F07E1F7C0E0D0E08091D9079091DA070A
:10251000C817D9075CF540E06FE0CE010E9495092D
:10252000D7FD0CC08091D9079091DA07C817D90759
:102530002CF447E06BE0CE010E94950940E069E091
:10254000CE010E949509CE010E94F209D7FD0CC070
:102550008091D9079091DA07C817D9072CF440E089
:102560006CE0CE010E9495092196CECF10926707AC
:102570001092660788EE93E0A0E0B0E080936807D1
:1025800090936907A0936A07B0936B0781E391E08A
:10259000909365078093640710927B0710927A07E7
:1025A00010927D0710927C0710927F0710927E0791
:1025B0001092810710928007609182076E7F6D7F75
:1025C000609382076695617081E0682783E00E94CE
:1025D000660961E083E00E943C0AECE3F1E0E491EB
:1025E000E0937407E8E2F1E0E491F0E0EE0FFF1F02
:1025F000E55EFE4F859194919093760780937507E1
:1026000060E082E00E943C0A8091820781FD04C064
:1026100061E082E00E94660982E080937007EBE34C
:10262000F1E0E491E0937107E7E2F1E0E491F0E09A
:10263000EE0FFF1FEF5EFE4F85919491909373070D
:1026400080937207DF91CF910895BB274A3031F410
:10265000992322F4BDE2909581959F4F0C943113FC
:10266000BB27FB015527AA27880F991FAA1FA4176C
:1026700010F0A41B83955051B9F7A05DAA3308F060
:10268000A95DA193009779F7B111B1931192CB0194
:102690000C944A13DC01FC01672F71917723E1F759
:1026A000329704C07C916D9370836291AE17BF071F
:1026B000C8F30895F999FECF92BD81BDF89A992784
:1026C00080B50895262FF999FECF1FBA92BD81BD1E
:1026D00020BD0FB6F894FA9AF99A0FBE01960895A4
:1026E0000E94B213A59F900DB49F900DA49F800DE2
:1026F000911D112408952F923F924F925F926F92F5
:102700007F928F929F92AF92BF92CF92DF92EF9281
:10271000FF920F931F93CF93DF93CDB7DEB7CA1B02
:10272000DB0B0FB6F894DEBF0FBECDBF09942A882D
:10273000398848885F846E847D848C849B84AA84D5
:10274000B984C884DF80EE80FD800C811B81AA8162
:10275000B981CE0FD11D0FB6F894DEBF0FBECDBF2D
:10276000ED010895A29FB001B39FC001A39F700D1A
:10277000811D1124911DB29F700D811D1124911D89
:102780000895DB018F939F930E947013BF91AF91C7
:10279000A29F800D911DA39F900DB29F900D1124BB
:1027A0000895AA1BBB1B51E107C0AA1FBB1FA61798
:1027B000B70710F0A61BB70B881F991F5A95A9F7EA
:1027C00080959095BC01CD01089597FB072E16F4D6
:1027D000009407D077FD09D00E94D11307FC05D0E3
:1027E0003EF4909581959F4F0895709561957F4F28
:1027F0000895A1E21A2EAA1BBB1BFD010DC0AA1F42
:10280000BB1FEE1FFF1FA217B307E407F50720F059
:10281000A21BB30BE40BF50B661F771F881F991FD4
:102820001A9469F760957095809590959B01AC011D
:10283000BD01CF010895EE0FFF1F0590F491E02D2B
:1028400009940F931F93CF93DF938230910510F477
:1028500082E090E0E091FE07F091FF0720E030E099
:10286000A0E0B0E0309719F14081518102811381DD
:1028700048175907C8F08417950769F4109731F085
:1028800012960C93129713961C9327C00093FE0781
:102890001093FF0722C02115310519F04217530785
:1028A00018F49A01BD01EF01DF01F801DBCF21151A
:1028B0003105F9F0281B390B2430310580F48A8169
:1028C0009B816115710521F0FB019383828304C014
:1028D0009093FF078093FE07FE01329644C0FE01ED
:1028E000E20FF31F8193919322503109398328839A
:1028F0003AC02091FC073091FD07232B41F4209131
:102900000501309106013093FD072093FC072091CB
:102910000301309104012115310541F42DB73EB773
:102920004091070150910801241B350BE091FC07F1
:10293000F091FD07E217F307A0F42E1B3F0B2817B9
:10294000390778F0AC014E5F5F4F2417350748F028
:102950004E0F5F1F5093FD074093FC0781939193A7
:1029600002C0E0E0F0E0CF01DF91CF911F910F9125
:102970000895CF93DF93009709F481C0FC0132974B
:1029800013821282A091FE07B091FF07109781F485
:1029900020813181820F931F2091FC073091FD0728
:1029A0002817390751F5F093FD07E093FC0767C03E
:1029B000ED0120E030E0CE17DF0740F44A815B8173
:1029C0009E0141155105F1F0EA01F5CFD383C28391
:1029D00040815181840F951FC817D90759F4888108
:1029E0009981840F951F0296918380838A819B81B0
:1029F000938382832115310529F4F093FF07E09337
:102A0000FE073DC0E901FB83EA8349915991C40F58
:102A1000D51FEC17FD0761F480819181840F951F0C
:102A20000296E90199838883828193819B838A83BB
:102A3000E0E0F0E012968D919C911397009719F0C9
:102A4000FD01DC01F7CF8D919C9111979D012E5FC7
:102A50003F4F820F931F2091FC073091FD072817ED
:102A6000390769F4309729F41092FF071092FE0796
:102A700002C013821282B093FD07A093FC07DF917E
:102A8000CF910895A0E0B0E0E8E4F5E10C947F1365
:102A9000EC01009721F4CB010E942114B4C0FC0189
:102AA000E60FF71F9C0122503109E217F30708F4E3
:102AB000A8C0D9010D911C91119706171707B0F006
:102AC0000530110508F49BC0C801049786179707C5
:102AD00008F495C002501109061B170B01931193BE
:102AE0006D937C93CF010E94B91489C05B01A01A39
:102AF000B10A4C01800E911EA091FE07B091FF0714
:102B0000612C712CE12CF12C109709F446C08D91A9
:102B10009C911197A815B905B1F56C0142E0C40E5E
:102B2000D11CCA14DB0478F14C018A189B0864019B
:102B300042E0C40ED11C1296BC9012971396AC9131
:102B4000B5E0CB16D10440F0B282A383918280829B
:102B5000D9016D937C9309C00E5F1F4F800F911FA9
:102B6000F90191838083EB2DFA2FE114F10431F008
:102B7000D7011396FC93EE93129741C0F093FF0791
:102B8000E093FE073CC06816790608F43C017D011D
:102B900012960D90BC91A02DB7CF8091FC0790911B
:102BA000FD0788169906E1F466167706C8F4809149
:102BB000030190910401009741F48DB79EB74091B5
:102BC000070150910801841B950BE817F907C8F419
:102BD000F093FD07E093FC07F901718360830FC058
:102BE000CB010E9421147C01009759F0A801BE017D
:102BF0000E940816CE010E94B914C70104C0CE017C
:102C000002C080E090E0CDB7DEB7EEE00C949B13FD
:102C1000FB01DC0102C001900D9241505040D8F7F9
:102C20000895FB01DC0101900D920020E1F7089569
:102C300010E0C8EAD0E004C0FE010E941B142196F7
:0A2C4000C93AD107C9F7F894FFCF95
:102C4A00010101000000082000000000006601D315
:102C5A0000FD00B3012E010C012001000000000359
:102C6A0003D6023303F701CE02BA02AB0200000018
:102C7A0000F801D3003303F70148026002DF016460
:0E2C8A000000000D0A0052696E67696E670057
:00000001FF
